:0502100012011280FB49
:1001BF00AE071FEE600A7E027DEFDDFEDEFC80F0F3
:0101CF00220D
:09020000D2A0D2A1C2A0C2A12229
:07020900C2A0D2A1D2A02285
:02017800AD07D1
:10017A00E4FB74807E00A803088006CEA2E713CEB3
:10018A0013D8F8FFEDF582EF558224FF92A0D2A191
:06019A00C2A10BBB08DC52
:0101A000223C
:1001A100E4FFD2A0FED2A130A00D7480A806088081
:0D01B10002C313D8FC4207C2A10EBE08E82D
:0101BE00221E
:0A01F600EF24FF92A0D2A1C2A122C3
:0B01DE00D2A0D2A1A2A0E433FFC2A176
:0101E90022F3
:0E01D00048656C6C6F20526F626F636F6E003B
:10011200780A7C007D007BFF7A0179D07E007F0E19
:100122001200D3751800751900751A0AE4F508F55E
:10013200091202007F101201781201DEAB18051AB3
:10014200E51AAA197002051914F91200F9FF120131
:10015200781201DE740A2509F8E6FF12017812010D
:10016200DE1202090509E50970020508C3940DE5CE
:0501720008940040BCF0
:010177002265
:030000000201EA10
:0C01EA00787FE4F6D8FD75811A0202103F
:10000300E709F608DFFA8046E709F208DFFA803EDF
:1000130088828C83E709F0A3DFFA8032E309F608CC
:10002300DFFA8078E309F208DFFA807088828C8334
:10003300E309F0A3DFFA806489828A83E0A3F608E8
:10004300DFFA805889828A83E0A3F208DFFA804CC2
:1000530080D280FA80C680D4806980F28033801099
:1000630080A680EA809A80A880DA80E280CA803302
:1000730089828A83ECFAE493A3C8C582C8CCC5837A
:10008300CCF0A3C8C582C8CCC583CCDFE9DEE7804A
:100093000D89828A83E493A3F608DFF9ECFAA9F0C9
:1000A300EDFB2289828A83ECFAE0A3C8C582C8CC1F
:1000B300C583CCF0A3C8C582C8CCC583CCDFEADE38
:1000C300E880DB89828A83E493A3F208DFF980CC9A
:1000D30088F0EF60010E4E60C388F0ED2402B40493
:1000E3000050B9F582EB2402B4040050AF2323453A
:0600F3008223900053730C
:1000F900BB010689828A83E0225002E722BBFE0205
:09010900E32289828A83E4932237
:00000001FF
